{
  "_format": "hh-sol-artifact-1",
  "contractName": "BasicToken",
  "sourceName": "contracts/BasicToken.sol",
  "abi": [
    {
      "inputs": [
        {
          "internalType": "string",
          "name": "name_",
          "type": "string"
        },
        {
          "internalType": "string",
          "name": "symbol_",
          "type": "string"
        },
        {
          "internalType": "uint256",
          "name": "decimals_",
          "type": "uint256"
        }
      ],
      "stateMutability": "nonpayable",
      "type": "constructor"
    },
    {
      "anonymous": false,
      "inputs": [
        {
          "indexed": false,
          "internalType": "uint256",
          "name": "numOfToken",
          "type": "uint256"
        }
      ],
      "name": "issueTokensEvent",
      "type": "event"
    },
    {
      "anonymous": false,
      "inputs": [
        {
          "indexed": true,
          "internalType": "address",
          "name": "from",
          "type": "address"
        },
        {
          "indexed": true,
          "internalType": "address",
          "name": "to",
          "type": "address"
        },
        {
          "indexed": true,
          "internalType": "uint256",
          "name": "amount",
          "type": "uint256"
        }
      ],
      "name": "transactionEvent",
      "type": "event"
    },
    {
      "inputs": [],
      "name": "balance",
      "outputs": [
        {
          "internalType": "uint256",
          "name": "",
          "type": "uint256"
        }
      ],
      "stateMutability": "view",
      "type": "function"
    },
    {
      "inputs": [
        {
          "internalType": "address",
          "name": "",
          "type": "address"
        }
      ],
      "name": "balanceOf",
      "outputs": [
        {
          "internalType": "uint256",
          "name": "",
          "type": "uint256"
        }
      ],
      "stateMutability": "view",
      "type": "function"
    },
    {
      "inputs": [],
      "name": "decimals",
      "outputs": [
        {
          "internalType": "uint256",
          "name": "",
          "type": "uint256"
        }
      ],
      "stateMutability": "view",
      "type": "function"
    },
    {
      "inputs": [
        {
          "internalType": "uint256",
          "name": "totalTokens",
          "type": "uint256"
        }
      ],
      "name": "issueTokens",
      "outputs": [],
      "stateMutability": "nonpayable",
      "type": "function"
    },
    {
      "inputs": [],
      "name": "name",
      "outputs": [
        {
          "internalType": "string",
          "name": "",
          "type": "string"
        }
      ],
      "stateMutability": "view",
      "type": "function"
    },
    {
      "inputs": [],
      "name": "symbol",
      "outputs": [
        {
          "internalType": "string",
          "name": "",
          "type": "string"
        }
      ],
      "stateMutability": "view",
      "type": "function"
    },
    {
      "inputs": [],
      "name": "totalSupply",
      "outputs": [
        {
          "internalType": "uint256",
          "name": "",
          "type": "uint256"
        }
      ],
      "stateMutability": "view",
      "type": "function"
    },
    {
      "inputs": [
        {
          "internalType": "address",
          "name": "recipient",
          "type": "address"
        },
        {
          "internalType": "uint256",
          "name": "amount",
          "type": "uint256"
        }
      ],
      "name": "transaction",
      "outputs": [
        {
          "internalType": "bool",
          "name": "",
          "type": "bool"
        }
      ],
      "stateMutability": "nonpayable",
      "type": "function"
    }
  ],
  "bytecode": "0x60806040523480156200001157600080fd5b5060405162001182380380620011828339818101604052810190620000379190620002c1565b60128111156200007e576040517f08c379a00000000000000000000000000000000000000000000000000000000081526004016200007590620003bc565b60405180910390fd5b82600090816200008f91906200061f565b508160019081620000a191906200061f565b508060048190555033600260006101000a81548173ffffffffffffffffffffffffffffffffffffffff021916908373ffffffffffffffffffffffffffffffffffffffff16021790555050505062000706565b6000604051905090565b600080fd5b600080fd5b600080fd5b600080fd5b6000601f19601f8301169050919050565b7f4e487b7100000000000000000000000000000000000000000000000000000000600052604160045260246000fd5b6200015c8262000111565b810181811067ffffffffffffffff821117156200017e576200017d62000122565b5b80604052505050565b600062000193620000f3565b9050620001a1828262000151565b919050565b600067ffffffffffffffff821115620001c457620001c362000122565b5b620001cf8262000111565b9050602081019050919050565b60005b83811015620001fc578082015181840152602081019050620001df565b60008484015250505050565b60006200021f6200021984620001a6565b62000187565b9050828152602081018484840111156200023e576200023d6200010c565b5b6200024b848285620001dc565b509392505050565b600082601f8301126200026b576200026a62000107565b5b81516200027d84826020860162000208565b91505092915050565b6000819050919050565b6200029b8162000286565b8114620002a757600080fd5b50565b600081519050620002bb8162000290565b92915050565b600080600060608486031215620002dd57620002dc620000fd565b5b600084015167ffffffffffffffff811115620002fe57620002fd62000102565b5b6200030c8682870162000253565b935050602084015167ffffffffffffffff81111562000330576200032f62000102565b5b6200033e8682870162000253565b92505060406200035186828701620002aa565b9150509250925092565b600082825260208201905092915050565b7f446563696d616c2073686f756c64206265206c657373207468616e2031390000600082015250565b6000620003a4601e836200035b565b9150620003b1826200036c565b602082019050919050565b60006020820190508181036000830152620003d78162000395565b9050919050565b600081519050919050565b7f4e487b7100000000000000000000000000000000000000000000000000000000600052602260045260246000fd5b600060028204905060018216806200043157607f821691505b602082108103620004475762000446620003e9565b5b50919050565b60008190508160005260206000209050919050565b60006020601f8301049050919050565b600082821b905092915050565b600060088302620004b17fffffffffffffffffffffffffffffffffffffffffffffffffffffffffffffffff8262000472565b620004bd868362000472565b95508019841693508086168417925050509392505050565b6000819050919050565b600062000500620004fa620004f48462000286565b620004d5565b62000286565b9050919050565b6000819050919050565b6200051c83620004df565b620005346200052b8262000507565b8484546200047f565b825550505050565b600090565b6200054b6200053c565b6200055881848462000511565b505050565b5b8181101562000580576200057460008262000541565b6001810190506200055e565b5050565b601f821115620005cf5762000599816200044d565b620005a48462000462565b81016020851015620005b4578190505b620005cc620005c38562000462565b8301826200055d565b50505b505050565b600082821c905092915050565b6000620005f460001984600802620005d4565b1980831691505092915050565b60006200060f8383620005e1565b9150826002028217905092915050565b6200062a82620003de565b67ffffffffffffffff81111562000646576200064562000122565b5b62000652825462000418565b6200065f82828562000584565b600060209050601f83116001811462000697576000841562000682578287015190505b6200068e858262000601565b865550620006fe565b601f198416620006a7866200044d565b60005b82811015620006d157848901518255600182019150602085019450602081019050620006aa565b86831015620006f15784890151620006ed601f891682620005e1565b8355505b6001600288020188555050505b505050505050565b610a6c80620007166000396000f3fe608060405234801561001057600080fd5b50600436106100885760003560e01c806395d89b411161005b57806395d89b4114610117578063a088ceb614610135578063a5820daa14610165578063b69ef8a81461018157610088565b806306fdde031461008d57806318160ddd146100ab578063313ce567146100c957806370a08231146100e7575b600080fd5b61009561019f565b6040516100a291906106b2565b60405180910390f35b6100b3610231565b6040516100c091906106ed565b60405180910390f35b6100d1610237565b6040516100de91906106ed565b60405180910390f35b61010160048036038101906100fc919061076b565b610241565b60405161010e91906106ed565b60405180910390f35b61011f610259565b60405161012c91906106b2565b60405180910390f35b61014f600480360381019061014a91906107c4565b6102eb565b60405161015c919061081f565b60405180910390f35b61017f600480360381019061017a919061083a565b610480565b005b6101896105db565b60405161019691906106ed565b60405180910390f35b6060600080546101ae90610896565b80601f01602080910402602001604051908101604052809291908181526020018280546101da90610896565b80156102275780601f106101fc57610100808354040283529160200191610227565b820191906000526020600020905b81548152906001019060200180831161020a57829003601f168201915b5050505050905090565b60035481565b6000600454905090565b60056020528060005260406000206000915090505481565b60606001805461026890610896565b80601f016020809104026020016040519081016040528092919081815260200182805461029490610896565b80156102e15780601f106102b6576101008083540402835291602001916102e1565b820191906000526020600020905b8154815290600101906020018083116102c457829003601f168201915b5050505050905090565b600081600560003373ffffffffffffffffffffffffffffffffffffffff1673ffffffffffffffffffffffffffffffffffffffff16815260200190815260200160002054101561036f576040517f08c379a000000000000000000000000000000000000000000000000000000000815260040161036690610913565b60405180910390fd5b81600560003373ffffffffffffffffffffffffffffffffffffffff1673ffffffffffffffffffffffffffffffffffffffff16815260200190815260200160002060008282546103be9190610962565b9250508190555081600560008573ffffffffffffffffffffffffffffffffffffffff1673ffffffffffffffffffffffffffffffffffffffff16815260200190815260200160002060008282546104149190610996565b92505081905550818373ffffffffffffffffffffffffffffffffffffffff163373ffffffffffffffffffffffffffffffffffffffff167faedd4fd7f968090b8d5c468f611af02a1d48333a145083e0670d0ee8c4295e2260405160405180910390a46001905092915050565b600260009054906101000a900473ffffffffffffffffffffffffffffffffffffffff1673ffffffffffffffffffffffffffffffffffffffff163373ffffffffffffffffffffffffffffffffffffffff1614610510576040517f08c379a000000000000000000000000000000000000000000000000000000000815260040161050790610a16565b60405180910390fd5b80600360008282546105229190610996565b925050819055508060056000600260009054906101000a900473ffffffffffffffffffffffffffffffffffffffff1673ffffffffffffffffffffffffffffffffffffffff1673ffffffffffffffffffffffffffffffffffffffff168152602001908152602001600020600082825461059a9190610996565b925050819055507f097dc88547d726e54ef35ac51e08ac93cf4c2d43aa420fb6f675eb54f2906043816040516105d091906106ed565b60405180910390a150565b6000600560003373ffffffffffffffffffffffffffffffffffffffff1673ffffffffffffffffffffffffffffffffffffffff16815260200190815260200160002054905090565b600081519050919050565b600082825260208201905092915050565b60005b8381101561065c578082015181840152602081019050610641565b60008484015250505050565b6000601f19601f8301169050919050565b600061068482610622565b61068e818561062d565b935061069e81856020860161063e565b6106a781610668565b840191505092915050565b600060208201905081810360008301526106cc8184610679565b905092915050565b6000819050919050565b6106e7816106d4565b82525050565b600060208201905061070260008301846106de565b92915050565b600080fd5b600073ffffffffffffffffffffffffffffffffffffffff82169050919050565b60006107388261070d565b9050919050565b6107488161072d565b811461075357600080fd5b50565b6000813590506107658161073f565b92915050565b60006020828403121561078157610780610708565b5b600061078f84828501610756565b91505092915050565b6107a1816106d4565b81146107ac57600080fd5b50565b6000813590506107be81610798565b92915050565b600080604083850312156107db576107da610708565b5b60006107e985828601610756565b92505060206107fa858286016107af565b9150509250929050565b60008115159050919050565b61081981610804565b82525050565b60006020820190506108346000830184610810565b92915050565b6000602082840312156108505761084f610708565b5b600061085e848285016107af565b91505092915050565b7f4e487b7100000000000000000000000000000000000000000000000000000000600052602260045260246000fd5b600060028204905060018216806108ae57607f821691505b6020821081036108c1576108c0610867565b5b50919050565b7f496e73756666696369656e742062616c616e6365000000000000000000000000600082015250565b60006108fd60148361062d565b9150610908826108c7565b602082019050919050565b6000602082019050818103600083015261092c816108f0565b9050919050565b7f4e487b7100000000000000000000000000000000000000000000000000000000600052601160045260246000fd5b600061096d826106d4565b9150610978836106d4565b92508282039050818111156109905761098f610933565b5b92915050565b60006109a1826106d4565b91506109ac836106d4565b92508282019050808211156109c4576109c3610933565b5b92915050565b7f4f6e6c79206d616e616765722068617665207065726d697373696f6e00000000600082015250565b6000610a00601c8361062d565b9150610a0b826109ca565b602082019050919050565b60006020820190508181036000830152610a2f816109f3565b905091905056fea2646970667358221220a05f2d50c2f53c818acabd8459fbe11c6c5de55e130f090cf6a330168124e61264736f6c63430008110033",
  "linkReferences": {},
  "deployedLinkReferences": {}
}